{
  "contractName": "Dex",
  "abi": [
    {
      "inputs": [],
      "stateMutability": "nonpayable",
      "type": "constructor"
    },
    {
      "anonymous": false,
      "inputs": [
        {
          "indexed": false,
          "internalType": "uint256",
          "name": "tradeId",
          "type": "uint256"
        },
        {
          "indexed": false,
          "internalType": "uint256",
          "name": "orderId",
          "type": "uint256"
        },
        {
          "indexed": true,
          "internalType": "bytes32",
          "name": "ticker",
          "type": "bytes32"
        },
        {
          "indexed": true,
          "internalType": "address",
          "name": "trader1",
          "type": "address"
        },
        {
          "indexed": true,
          "internalType": "address",
          "name": "trader2",
          "type": "address"
        },
        {
          "indexed": false,
          "internalType": "uint256",
          "name": "amount",
          "type": "uint256"
        },
        {
          "indexed": false,
          "internalType": "uint256",
          "name": "price",
          "type": "uint256"
        },
        {
          "indexed": false,
          "internalType": "uint256",
          "name": "date",
          "type": "uint256"
        }
      ],
      "name": "NewTrade",
      "type": "event"
    },
    {
      "inputs": [],
      "name": "admin",
      "outputs": [
        {
          "internalType": "address",
          "name": "",
          "type": "address"
        }
      ],
      "stateMutability": "view",
      "type": "function",
      "constant": true
    },
    {
      "inputs": [],
      "name": "nextOrderId",
      "outputs": [
        {
          "internalType": "uint256",
          "name": "",
          "type": "uint256"
        }
      ],
      "stateMutability": "view",
      "type": "function",
      "constant": true
    },
    {
      "inputs": [],
      "name": "nextTradeId",
      "outputs": [
        {
          "internalType": "uint256",
          "name": "",
          "type": "uint256"
        }
      ],
      "stateMutability": "view",
      "type": "function",
      "constant": true
    },
    {
      "inputs": [
        {
          "internalType": "bytes32",
          "name": "",
          "type": "bytes32"
        },
        {
          "internalType": "uint256",
          "name": "",
          "type": "uint256"
        },
        {
          "internalType": "uint256",
          "name": "",
          "type": "uint256"
        }
      ],
      "name": "orderBook",
      "outputs": [
        {
          "internalType": "uint256",
          "name": "id",
          "type": "uint256"
        },
        {
          "internalType": "address",
          "name": "trader",
          "type": "address"
        },
        {
          "internalType": "enum Dex.Side",
          "name": "side",
          "type": "uint8"
        },
        {
          "internalType": "bytes32",
          "name": "ticker",
          "type": "bytes32"
        },
        {
          "internalType": "uint256",
          "name": "amount",
          "type": "uint256"
        },
        {
          "internalType": "uint256",
          "name": "filled",
          "type": "uint256"
        },
        {
          "internalType": "uint256",
          "name": "price",
          "type": "uint256"
        },
        {
          "internalType": "uint256",
          "name": "date",
          "type": "uint256"
        }
      ],
      "stateMutability": "view",
      "type": "function",
      "constant": true
    },
    {
      "inputs": [
        {
          "internalType": "uint256",
          "name": "",
          "type": "uint256"
        }
      ],
      "name": "tokenList",
      "outputs": [
        {
          "internalType": "bytes32",
          "name": "",
          "type": "bytes32"
        }
      ],
      "stateMutability": "view",
      "type": "function",
      "constant": true
    },
    {
      "inputs": [
        {
          "internalType": "bytes32",
          "name": "",
          "type": "bytes32"
        }
      ],
      "name": "tokens",
      "outputs": [
        {
          "internalType": "bytes32",
          "name": "ticker",
          "type": "bytes32"
        },
        {
          "internalType": "address",
          "name": "tokenAddress",
          "type": "address"
        }
      ],
      "stateMutability": "view",
      "type": "function",
      "constant": true
    },
    {
      "inputs": [
        {
          "internalType": "address",
          "name": "",
          "type": "address"
        },
        {
          "internalType": "bytes32",
          "name": "",
          "type": "bytes32"
        }
      ],
      "name": "traderBalances",
      "outputs": [
        {
          "internalType": "uint256",
          "name": "",
          "type": "uint256"
        }
      ],
      "stateMutability": "view",
      "type": "function",
      "constant": true
    },
    {
      "inputs": [
        {
          "internalType": "bytes32",
          "name": "ticker",
          "type": "bytes32"
        },
        {
          "internalType": "enum Dex.Side",
          "name": "side",
          "type": "uint8"
        }
      ],
      "name": "getOrders",
      "outputs": [
        {
          "components": [
            {
              "internalType": "uint256",
              "name": "id",
              "type": "uint256"
            },
            {
              "internalType": "address",
              "name": "trader",
              "type": "address"
            },
            {
              "internalType": "enum Dex.Side",
              "name": "side",
              "type": "uint8"
            },
            {
              "internalType": "bytes32",
              "name": "ticker",
              "type": "bytes32"
            },
            {
              "internalType": "uint256",
              "name": "amount",
              "type": "uint256"
            },
            {
              "internalType": "uint256",
              "name": "filled",
              "type": "uint256"
            },
            {
              "internalType": "uint256",
              "name": "price",
              "type": "uint256"
            },
            {
              "internalType": "uint256",
              "name": "date",
              "type": "uint256"
            }
          ],
          "internalType": "struct Dex.Order[]",
          "name": "",
          "type": "tuple[]"
        }
      ],
      "stateMutability": "view",
      "type": "function",
      "constant": true
    },
    {
      "inputs": [],
      "name": "getTokens",
      "outputs": [
        {
          "components": [
            {
              "internalType": "bytes32",
              "name": "ticker",
              "type": "bytes32"
            },
            {
              "internalType": "address",
              "name": "tokenAddress",
              "type": "address"
            }
          ],
          "internalType": "struct Dex.Token[]",
          "name": "",
          "type": "tuple[]"
        }
      ],
      "stateMutability": "view",
      "type": "function",
      "constant": true
    },
    {
      "inputs": [
        {
          "internalType": "bytes32",
          "name": "ticker",
          "type": "bytes32"
        },
        {
          "internalType": "address",
          "name": "tokenAddress",
          "type": "address"
        }
      ],
      "name": "addToken",
      "outputs": [],
      "stateMutability": "nonpayable",
      "type": "function"
    },
    {
      "inputs": [
        {
          "internalType": "uint256",
          "name": "amount",
          "type": "uint256"
        },
        {
          "internalType": "bytes32",
          "name": "ticker",
          "type": "bytes32"
        }
      ],
      "name": "deposit",
      "outputs": [],
      "stateMutability": "nonpayable",
      "type": "function"
    },
    {
      "inputs": [
        {
          "internalType": "uint256",
          "name": "amount",
          "type": "uint256"
        },
        {
          "internalType": "bytes32",
          "name": "ticker",
          "type": "bytes32"
        }
      ],
      "name": "withdraw",
      "outputs": [],
      "stateMutability": "nonpayable",
      "type": "function"
    },
    {
      "inputs": [
        {
          "internalType": "bytes32",
          "name": "ticker",
          "type": "bytes32"
        },
        {
          "internalType": "uint256",
          "name": "amount",
          "type": "uint256"
        },
        {
          "internalType": "uint256",
          "name": "price",
          "type": "uint256"
        },
        {
          "internalType": "enum Dex.Side",
          "name": "side",
          "type": "uint8"
        }
      ],
      "name": "createLimitOrder",
      "outputs": [],
      "stateMutability": "nonpayable",
      "type": "function"
    },
    {
      "inputs": [
        {
          "internalType": "bytes32",
          "name": "ticker",
          "type": "bytes32"
        },
        {
          "internalType": "uint256",
          "name": "amount",
          "type": "uint256"
        },
        {
          "internalType": "enum Dex.Side",
          "name": "side",
          "type": "uint8"
        }
      ],
      "name": "createMarketOrder",
      "outputs": [],
      "stateMutability": "nonpayable",
      "type": "function"
    }
  ],
  "bytecode": "0x608060405234801561001057600080fd5b5033600460006101000a81548173ffffffffffffffffffffffffffffffffffffffff021916908373ffffffffffffffffffffffffffffffffffffffff1602179055506134a4806100616000396000f3fe608060405234801561001057600080fd5b50600436106100ea5760003560e01c80639776aacf1161008c578063aa6ca80811610066578063aa6ca80814610277578063c9630cb014610295578063d9c0c950146102b1578063f851a440146102cd576100ea565b80639776aacf1461020f5780639ead72221461022b578063a8d2021a1461025b576100ea565b806372ce957e116100c857806372ce957e146101745780637f2c6246146101a4578063813ad083146101c0578063904194a3146101de576100ea565b80630bb431b6146100ef5780632a58b3301461012657806346e9658b14610144575b600080fd5b61010960048036036101049190810190612984565b6102eb565b60405161011d9897969594939291906131a5565b60405180910390f35b61012e610387565b60405161013b919061318a565b60405180910390f35b61015e600480360361015991908101906128f9565b61038d565b60405161016b9190612fe0565b60405180910390f35b61018e6004803603610189919081019061282f565b6104dc565b60405161019b919061318a565b60405180910390f35b6101be60048036036101b99190810190612935565b610501565b005b6101c86115db565b6040516101d5919061318a565b60405180910390f35b6101f860048036036101f39190810190612894565b6115e1565b60405161020692919061303f565b60405180910390f35b610229600480360361022491908101906128bd565b611625565b005b61024560048036036102409190810190612a36565b611773565b6040516102529190613024565b60405180910390f35b61027560048036036102709190810190612a5f565b611794565b005b61027f611a4c565b60405161028c9190613002565b60405180910390f35b6102af60048036036102aa9190810190612a5f565b611b73565b005b6102cb60048036036102c691908101906129d3565b611d9a565b005b6102d561259a565b6040516102e29190612f65565b60405180910390f35b6003602052826000526040600020602052816000526040600020818154811061031057fe5b906000526020600020906007020160009250925050508060000154908060010160009054906101000a900473ffffffffffffffffffffffffffffffffffffffff16908060010160149054906101000a900460ff16908060020154908060030154908060040154908060050154908060060154905088565b60055481565b60606003600084815260200190815260200160002060008360018111156103b057fe5b8152602001908152602001600020805480602002602001604051908101604052809291908181526020016000905b828210156104d0578382906000526020600020906007020160405180610100016040529081600082015481526020016001820160009054906101000a900473ffffffffffffffffffffffffffffffffffffffff1673ffffffffffffffffffffffffffffffffffffffff1673ffffffffffffffffffffffffffffffffffffffff1681526020016001820160149054906101000a900460ff16600181111561048057fe5b600181111561048b57fe5b815260200160028201548152602001600382015481526020016004820154815260200160058201548152602001600682015481525050815260200190600101906103de565b50505050905092915050565b6002602052816000526040600020602052806000526040600020600091509150505481565b82600073ffffffffffffffffffffffffffffffffffffffff1660008083815260200190815260200160002060010160009054906101000a900473ffffffffffffffffffffffffffffffffffffffff1673ffffffffffffffffffffffffffffffffffffffff1614156105a7576040517f08c379a000000000000000000000000000000000000000000000000000000000815260040161059e9061316a565b60405180910390fd5b837f444149000000000000000000000000000000000000000000000000000000000081141561060b576040517f08c379a0000000000000000000000000000000000000000000000000000000008152600401610602906130ea565b60405180910390fd5b60018081111561061757fe5b83600181111561062357fe5b14156106bd5783600260003373ffffffffffffffffffffffffffffffffffffffff1673ffffffffffffffffffffffffffffffffffffffff16815260200190815260200160002060008781526020019081526020016000205410156106bc576040517f08c379a00000000000000000000000000000000000000000000000000000000081526004016106b39061312a565b60405180910390fd5b5b60006003600087815260200190815260200160002060008060018111156106e057fe5b8660018111156106ec57fe5b146106f85760006106fb565b60015b600181111561070657fe5b815260200190815260200160002090506000808690505b8280549050821080156107305750600081115b1561139c57600061078484848154811061074657fe5b90600052602060002090600702016004015485858154811061076457fe5b9060005260206000209060070201600301546125c090919063ffffffff16565b905060008183116107955782610797565b815b90506107ac81846125c090919063ffffffff16565b92506107de818686815481106107be57fe5b90600052602060002090600702016004015461260a90919063ffffffff16565b8585815481106107ea57fe5b9060005260206000209060070201600401819055503373ffffffffffffffffffffffffffffffffffffffff1685858154811061082257fe5b906000526020600020906007020160010160009054906101000a900473ffffffffffffffffffffffffffffffffffffffff1673ffffffffffffffffffffffffffffffffffffffff168b7fdb0c486e680ba8026643e6a85f8d157b5e7bcd4b32b54d564542570a9eb2041660065489898154811061089b57fe5b906000526020600020906007020160000154868b8b815481106108ba57fe5b906000526020600020906007020160050154426040516108de959493929190613223565b60405180910390a46001808111156108f257fe5b8860018111156108fe57fe5b1415610db35761096781600260003373ffffffffffffffffffffffffffffffffffffffff1673ffffffffffffffffffffffffffffffffffffffff16815260200190815260200160002060008d8152602001908152602001600020546125c090919063ffffffff16565b600260003373ffffffffffffffffffffffffffffffffffffffff1673ffffffffffffffffffffffffffffffffffffffff16815260200190815260200160002060008c815260200190815260200160002081905550610a6d6109ee8686815481106109cd57fe5b9060005260206000209060070201600501548361265f90919063ffffffff16565b600260003373ffffffffffffffffffffffffffffffffffffffff1673ffffffffffffffffffffffffffffffffffffffff16815260200190815260200160002060007f444149000000000000000000000000000000000000000000000000000000000081526020019081526020016000205461260a90919063ffffffff16565b600260003373ffffffffffffffffffffffffffffffffffffffff1673ffffffffffffffffffffffffffffffffffffffff16815260200190815260200160002060007f4441490000000000000000000000000000000000000000000000000000000000815260200190815260200160002081905550610bd0610b14868681548110610af357fe5b9060005260206000209060070201600501548361265f90919063ffffffff16565b60026000888881548110610b2457fe5b906000526020600020906007020160010160009054906101000a900473ffffffffffffffffffffffffffffffffffffffff1673ffffffffffffffffffffffffffffffffffffffff1673ffffffffffffffffffffffffffffffffffffffff16815260200190815260200160002060007f44414900000000000000000000000000000000000000000000000000000000008152602001908152602001600020546125c090919063ffffffff16565b60026000878781548110610be057fe5b906000526020600020906007020160010160009054906101000a900473ffffffffffffffffffffffffffffffffffffffff1673ffffffffffffffffffffffffffffffffffffffff1673ffffffffffffffffffffffffffffffffffffffff16815260200190815260200160002060007f4441490000000000000000000000000000000000000000000000000000000000815260200190815260200160002081905550610d218160026000888881548110610c9557fe5b906000526020600020906007020160010160009054906101000a900473ffffffffffffffffffffffffffffffffffffffff1673ffffffffffffffffffffffffffffffffffffffff1673ffffffffffffffffffffffffffffffffffffffff16815260200190815260200160002060008d81526020019081526020016000205461260a90919063ffffffff16565b60026000878781548110610d3157fe5b906000526020600020906007020160010160009054906101000a900473ffffffffffffffffffffffffffffffffffffffff1673ffffffffffffffffffffffffffffffffffffffff1673ffffffffffffffffffffffffffffffffffffffff16815260200190815260200160002060008c8152602001908152602001600020819055505b60006001811115610dc057fe5b886001811115610dcc57fe5b141561139557610e02858581548110610de157fe5b9060005260206000209060070201600501548261265f90919063ffffffff16565b600260003373ffffffffffffffffffffffffffffffffffffffff1673ffffffffffffffffffffffffffffffffffffffff16815260200190815260200160002060007f44414900000000000000000000000000000000000000000000000000000000008152602001908152602001600020541015610eb4576040517f08c379a0000000000000000000000000000000000000000000000000000000008152600401610eab906130ca565b60405180910390fd5b610f1781600260003373ffffffffffffffffffffffffffffffffffffffff1673ffffffffffffffffffffffffffffffffffffffff16815260200190815260200160002060008d8152602001908152602001600020546125c090919063ffffffff16565b60026000878781548110610f2757fe5b906000526020600020906007020160010160009054906101000a900473ffffffffffffffffffffffffffffffffffffffff1673ffffffffffffffffffffffffffffffffffffffff1673ffffffffffffffffffffffffffffffffffffffff16815260200190815260200160002060008c81526020019081526020016000208190555061105a610fdb868681548110610fba57fe5b9060005260206000209060070201600501548361265f90919063ffffffff16565b600260003373ffffffffffffffffffffffffffffffffffffffff1673ffffffffffffffffffffffffffffffffffffffff16815260200190815260200160002060007f444149000000000000000000000000000000000000000000000000000000000081526020019081526020016000205461260a90919063ffffffff16565b6002600087878154811061106a57fe5b906000526020600020906007020160010160009054906101000a900473ffffffffffffffffffffffffffffffffffffffff1673ffffffffffffffffffffffffffffffffffffffff1673ffffffffffffffffffffffffffffffffffffffff16815260200190815260200160002060007f44414900000000000000000000000000000000000000000000000000000000008152602001908152602001600020819055506111fa61113e86868154811061111d57fe5b9060005260206000209060070201600501548361265f90919063ffffffff16565b6002600088888154811061114e57fe5b906000526020600020906007020160010160009054906101000a900473ffffffffffffffffffffffffffffffffffffffff1673ffffffffffffffffffffffffffffffffffffffff1673ffffffffffffffffffffffffffffffffffffffff16815260200190815260200160002060007f44414900000000000000000000000000000000000000000000000000000000008152602001908152602001600020546125c090919063ffffffff16565b600260003373ffffffffffffffffffffffffffffffffffffffff1673ffffffffffffffffffffffffffffffffffffffff16815260200190815260200160002060007f444149000000000000000000000000000000000000000000000000000000000081526020019081526020016000208190555061130e816002600088888154811061128257fe5b906000526020600020906007020160010160009054906101000a900473ffffffffffffffffffffffffffffffffffffffff1673ffffffffffffffffffffffffffffffffffffffff1673ffffffffffffffffffffffffffffffffffffffff16815260200190815260200160002060008d81526020019081526020016000205461260a90919063ffffffff16565b600260003373ffffffffffffffffffffffffffffffffffffffff1673ffffffffffffffffffffffffffffffffffffffff16815260200190815260200160002060008c815260200190815260200160002081905550611378600160065461260a90919063ffffffff16565b60068190555061139260018561260a90919063ffffffff16565b93505b505061071d565b600091505b8280549050821080156113ed57508282815481106113bb57fe5b9060005260206000209060070201600301548383815481106113d957fe5b906000526020600020906007020160040154145b156115d15760008290505b60018480549050038110156115275783600182018154811061141657fe5b906000526020600020906007020184828154811061143057fe5b9060005260206000209060070201600082015481600001556001820160009054906101000a900473ffffffffffffffffffffffffffffffffffffffff168160010160006101000a81548173ffffffffffffffffffffffffffffffffffffffff021916908373ffffffffffffffffffffffffffffffffffffffff1602179055506001820160149054906101000a900460ff168160010160146101000a81548160ff021916908360018111156114e057fe5b0217905550600282015481600201556003820154816003015560048201548160040155600582015481600501556006820154816006015590505080806001019150506113f8565b508280548061153257fe5b60019003818190600052602060002090600702016000808201600090556001820160006101000a81549073ffffffffffffffffffffffffffffffffffffffff02191690556001820160146101000a81549060ff021916905560028201600090556003820160009055600482016000905560058201600090556006820160009055505090556115ca60018361260a90919063ffffffff16565b91506113a1565b5050505050505050565b60065481565b60006020528060005260406000206000915090508060000154908060010160009054906101000a900473ffffffffffffffffffffffffffffffffffffffff16905082565b600460009054906101000a900473ffffffffffffffffffffffffffffffffffffffff1673ffffffffffffffffffffffffffffffffffffffff163373ffffffffffffffffffffffffffffffffffffffff16146116b5576040517f08c379a00000000000000000000000000000000000000000000000000000000081526004016116ac906130aa565b60405180910390fd5b60405180604001604052808381526020018273ffffffffffffffffffffffffffffffffffffffff168152506000808481526020019081526020016000206000820151816000015560208201518160010160006101000a81548173ffffffffffffffffffffffffffffffffffffffff021916908373ffffffffffffffffffffffffffffffffffffffff16021790555090505060018290806001815401808255809150506001900390600052602060002001600090919091909150555050565b6001818154811061178057fe5b906000526020600020016000915090505481565b80600073ffffffffffffffffffffffffffffffffffffffff1660008083815260200190815260200160002060010160009054906101000a900473ffffffffffffffffffffffffffffffffffffffff1673ffffffffffffffffffffffffffffffffffffffff16141561183a576040517f08c379a00000000000000000000000000000000000000000000000000000000081526004016118319061316a565b60405180910390fd5b82600260003373ffffffffffffffffffffffffffffffffffffffff1673ffffffffffffffffffffffffffffffffffffffff16815260200190815260200160002060008481526020019081526020016000205410156118cd576040517f08c379a00000000000000000000000000000000000000000000000000000000081526004016118c49061314a565b60405180910390fd5b60008083815260200190815260200160002060010160009054906101000a900473ffffffffffffffffffffffffffffffffffffffff1673ffffffffffffffffffffffffffffffffffffffff1663a9059cbb33856040518363ffffffff1660e01b815260040161193d929190612fb7565b602060405180830381600087803b15801561195757600080fd5b505af115801561196b573d6000803e3d6000fd5b505050506040513d601f19601f8201168201806040525061198f919081019061286b565b506119f383600260003373ffffffffffffffffffffffffffffffffffffffff1673ffffffffffffffffffffffffffffffffffffffff1681526020019081526020016000206000858152602001908152602001600020546125c090919063ffffffff16565b600260003373ffffffffffffffffffffffffffffffffffffffff1673ffffffffffffffffffffffffffffffffffffffff168152602001908152602001600020600084815260200190815260200160002081905550505050565b606080600180549050604051908082528060200260200182016040528015611a8e57816020015b611a7b61272a565b815260200190600190039081611a735790505b50905060008090505b600180549050811015611b6b57604051806040016040528060008060018581548110611abf57fe5b9060005260206000200154815260200190815260200160002060000154815260200160008060018581548110611af157fe5b9060005260206000200154815260200190815260200160002060010160009054906101000a900473ffffffffffffffffffffffffffffffffffffffff1673ffffffffffffffffffffffffffffffffffffffff16815250828281518110611b5357fe5b60200260200101819052508080600101915050611a97565b508091505090565b80600073ffffffffffffffffffffffffffffffffffffffff1660008083815260200190815260200160002060010160009054906101000a900473ffffffffffffffffffffffffffffffffffffffff1673ffffffffffffffffffffffffffffffffffffffff161415611c19576040517f08c379a0000000000000000000000000000000000000000000000000000000008152600401611c109061316a565b60405180910390fd5b60008083815260200190815260200160002060010160009054906101000a900473ffffffffffffffffffffffffffffffffffffffff1673ffffffffffffffffffffffffffffffffffffffff166323b872dd3330866040518463ffffffff1660e01b8152600401611c8b93929190612f80565b602060405180830381600087803b158015611ca557600080fd5b505af1158015611cb9573d6000803e3d6000fd5b505050506040513d601f19601f82011682018060405250611cdd919081019061286b565b50611d4183600260003373ffffffffffffffffffffffffffffffffffffffff1673ffffffffffffffffffffffffffffffffffffffff16815260200190815260200160002060008581526020019081526020016000205461260a90919063ffffffff16565b600260003373ffffffffffffffffffffffffffffffffffffffff1673ffffffffffffffffffffffffffffffffffffffff168152602001908152602001600020600084815260200190815260200160002081905550505050565b83600073ffffffffffffffffffffffffffffffffffffffff1660008083815260200190815260200160002060010160009054906101000a900473ffffffffffffffffffffffffffffffffffffffff1673ffffffffffffffffffffffffffffffffffffffff161415611e40576040517f08c379a0000000000000000000000000000000000000000000000000000000008152600401611e379061316a565b60405180910390fd5b847f4441490000000000000000000000000000000000000000000000000000000000811415611ea4576040517f08c379a0000000000000000000000000000000000000000000000000000000008152600401611e9b906130ea565b60405180910390fd5b600180811115611eb057fe5b836001811115611ebc57fe5b1415611f5a5784600260003373ffffffffffffffffffffffffffffffffffffffff1673ffffffffffffffffffffffffffffffffffffffff1681526020019081526020016000206000888152602001908152602001600020541015611f55576040517f08c379a0000000000000000000000000000000000000000000000000000000008152600401611f4c9061312a565b60405180910390fd5b612020565b611f6d848661265f90919063ffffffff16565b600260003373ffffffffffffffffffffffffffffffffffffffff1673ffffffffffffffffffffffffffffffffffffffff16815260200190815260200160002060007f4441490000000000000000000000000000000000000000000000000000000000815260200190815260200160002054101561201f576040517f08c379a0000000000000000000000000000000000000000000000000000000008152600401612016906130ca565b60405180910390fd5b5b600060036000888152602001908152602001600020600085600181111561204357fe5b815260200190815260200160002090508060405180610100016040528060055481526020013373ffffffffffffffffffffffffffffffffffffffff16815260200186600181111561209057fe5b8152602001898152602001888152602001600081526020018781526020014281525090806001815401808255809150506001900390600052602060002090600702016000909190919091506000820151816000015560208201518160010160006101000a81548173ffffffffffffffffffffffffffffffffffffffff021916908373ffffffffffffffffffffffffffffffffffffffff16021790555060408201518160010160146101000a81548160ff0219169083600181111561215057fe5b0217905550606082015181600201556080820151816003015560a0820151816004015560c0820151816005015560e08201518160060155505060008082805490501161219d5760006121a6565b60018280549050035b90505b600081111561257457600060018111156121bf57fe5b8560018111156121cb57fe5b14801561221457508181815481106121df57fe5b90600052602060002090600702016005015482600183038154811061220057fe5b906000526020600020906007020160050154115b1561221e57612574565b60018081111561222a57fe5b85600181111561223657fe5b14801561227f575081818154811061224a57fe5b90600052602060002090600702016005015482600183038154811061226b57fe5b906000526020600020906007020160050154105b1561228957612574565b61229161275d565b8260018303815481106122a057fe5b906000526020600020906007020160405180610100016040529081600082015481526020016001820160009054906101000a900473ffffffffffffffffffffffffffffffffffffffff1673ffffffffffffffffffffffffffffffffffffffff1673ffffffffffffffffffffffffffffffffffffffff1681526020016001820160149054906101000a900460ff16600181111561233857fe5b600181111561234357fe5b815260200160028201548152602001600382015481526020016004820154815260200160058201548152602001600682015481525050905082828154811061238757fe5b90600052602060002090600702018360018403815481106123a457fe5b9060005260206000209060070201600082015481600001556001820160009054906101000a900473ffffffffffffffffffffffffffffffffffffffff168160010160006101000a81548173ffffffffffffffffffffffffffffffffffffffff021916908373ffffffffffffffffffffffffffffffffffffffff1602179055506001820160149054906101000a900460ff168160010160146101000a81548160ff0219169083600181111561245457fe5b021790555060028201548160020155600382015481600301556004820154816004015560058201548160050155600682015481600601559050508083838154811061249b57fe5b90600052602060002090600702016000820151816000015560208201518160010160006101000a81548173ffffffffffffffffffffffffffffffffffffffff021916908373ffffffffffffffffffffffffffffffffffffffff16021790555060408201518160010160146101000a81548160ff0219169083600181111561251e57fe5b0217905550606082015181600201556080820151816003015560a0820151816004015560c0820151816005015560e0820151816006015590505061256c6001836125c090919063ffffffff16565b9150506121a9565b61258a600160055461260a90919063ffffffff16565b6005819055505050505050505050565b600460009054906101000a900473ffffffffffffffffffffffffffffffffffffffff1681565b600061260283836040518060400160405280601e81526020017f536166654d6174683a207375627472616374696f6e206f766572666c6f7700008152506126cf565b905092915050565b600080828401905083811015612655576040517f08c379a000000000000000000000000000000000000000000000000000000000815260040161264c9061308a565b60405180910390fd5b8091505092915050565b60008083141561267257600090506126c9565b600082840290508284828161268357fe5b04146126c4576040517f08c379a00000000000000000000000000000000000000000000000000000000081526004016126bb9061310a565b60405180910390fd5b809150505b92915050565b6000838311158290612717576040517f08c379a000000000000000000000000000000000000000000000000000000000815260040161270e9190613068565b60405180910390fd5b5060008385039050809150509392505050565b604051806040016040528060008019168152602001600073ffffffffffffffffffffffffffffffffffffffff1681525090565b60405180610100016040528060008152602001600073ffffffffffffffffffffffffffffffffffffffff1681526020016000600181111561279a57fe5b815260200160008019168152602001600081526020016000815260200160008152602001600081525090565b6000813590506127d581613402565b92915050565b6000815190506127ea81613419565b92915050565b6000813590506127ff81613430565b92915050565b60008135905061281481613447565b92915050565b60008135905061282981613457565b92915050565b6000806040838503121561284257600080fd5b6000612850858286016127c6565b9250506020612861858286016127f0565b9150509250929050565b60006020828403121561287d57600080fd5b600061288b848285016127db565b91505092915050565b6000602082840312156128a657600080fd5b60006128b4848285016127f0565b91505092915050565b600080604083850312156128d057600080fd5b60006128de858286016127f0565b92505060206128ef858286016127c6565b9150509250929050565b6000806040838503121561290c57600080fd5b600061291a858286016127f0565b925050602061292b85828601612805565b9150509250929050565b60008060006060848603121561294a57600080fd5b6000612958868287016127f0565b93505060206129698682870161281a565b925050604061297a86828701612805565b9150509250925092565b60008060006060848603121561299957600080fd5b60006129a7868287016127f0565b93505060206129b88682870161281a565b92505060406129c98682870161281a565b9150509250925092565b600080600080608085870312156129e957600080fd5b60006129f7878288016127f0565b9450506020612a088782880161281a565b9350506040612a198782880161281a565b9250506060612a2a87828801612805565b91505092959194509250565b600060208284031215612a4857600080fd5b6000612a568482850161281a565b91505092915050565b60008060408385031215612a7257600080fd5b6000612a808582860161281a565b9250506020612a91858286016127f0565b9150509250929050565b6000612aa78383612e76565b6101008301905092915050565b6000612ac08383612f18565b60408301905092915050565b612ad581613369565b82525050565b612ae481613304565b82525050565b612af381613304565b82525050565b6000612b0482613296565b612b0e81856132d1565b9350612b1983613276565b8060005b83811015612b4a578151612b318882612a9b565b9750612b3c836132b7565b925050600181019050612b1d565b5085935050505092915050565b6000612b62826132a1565b612b6c81856132e2565b9350612b7783613286565b8060005b83811015612ba8578151612b8f8882612ab4565b9750612b9a836132c4565b925050600181019050612b7b565b5085935050505092915050565b612bbe81613322565b82525050565b612bcd81613322565b82525050565b612bdc8161337b565b82525050565b612beb8161337b565b82525050565b6000612bfc826132ac565b612c0681856132f3565b9350612c168185602086016133b1565b612c1f816133e4565b840191505092915050565b6000612c37601b836132f3565b91507f536166654d6174683a206164646974696f6e206f766572666c6f7700000000006000830152602082019050919050565b6000612c77600a836132f3565b91507f6f6e6c792061646d696e000000000000000000000000000000000000000000006000830152602082019050919050565b6000612cb76013836132f3565b91507f4441492062616c616e636520746f6f206c6f77000000000000000000000000006000830152602082019050919050565b6000612cf76010836132f3565b91507f63616e6e6f7420747261646520444149000000000000000000000000000000006000830152602082019050919050565b6000612d376021836132f3565b91507f536166654d6174683a206d756c7469706c69636174696f6e206f766572666c6f60008301527f77000000000000000000000000000000000000000000000000000000000000006020830152604082019050919050565b6000612d9d6015836132f3565b91507f746f6b656e2062616c616e636520746f6f206c6f7700000000000000000000006000830152602082019050919050565b6000612ddd602d836132f3565b91507f74726164657220646f6573206e6f74206861766520656e6f7567682066756e6460008301527f7320746f207769746864726177000000000000000000000000000000000000006020830152604082019050919050565b6000612e436019836132f3565b91507f7468697320746f6b656e20646f6573206e6f74206578697374000000000000006000830152602082019050919050565b61010082016000820151612e8d6000850182612f47565b506020820151612ea06020850182612adb565b506040820151612eb36040850182612bd3565b506060820151612ec66060850182612bb5565b506080820151612ed96080850182612f47565b5060a0820151612eec60a0850182612f47565b5060c0820151612eff60c0850182612f47565b5060e0820151612f1260e0850182612f47565b50505050565b604082016000820151612f2e6000850182612bb5565b506020820151612f416020850182612adb565b50505050565b612f508161335f565b82525050565b612f5f8161335f565b82525050565b6000602082019050612f7a6000830184612aea565b92915050565b6000606082019050612f956000830186612acc565b612fa26020830185612aea565b612faf6040830184612f56565b949350505050565b6000604082019050612fcc6000830185612acc565b612fd96020830184612f56565b9392505050565b60006020820190508181036000830152612ffa8184612af9565b905092915050565b6000602082019050818103600083015261301c8184612b57565b905092915050565b60006020820190506130396000830184612bc4565b92915050565b60006040820190506130546000830185612bc4565b6130616020830184612aea565b9392505050565b600060208201905081810360008301526130828184612bf1565b905092915050565b600060208201905081810360008301526130a381612c2a565b9050919050565b600060208201905081810360008301526130c381612c6a565b9050919050565b600060208201905081810360008301526130e381612caa565b9050919050565b6000602082019050818103600083015261310381612cea565b9050919050565b6000602082019050818103600083015261312381612d2a565b9050919050565b6000602082019050818103600083015261314381612d90565b9050919050565b6000602082019050818103600083015261316381612dd0565b9050919050565b6000602082019050818103600083015261318381612e36565b9050919050565b600060208201905061319f6000830184612f56565b92915050565b6000610100820190506131bb600083018b612f56565b6131c8602083018a612aea565b6131d56040830189612be2565b6131e26060830188612bc4565b6131ef6080830187612f56565b6131fc60a0830186612f56565b61320960c0830185612f56565b61321660e0830184612f56565b9998505050505050505050565b600060a0820190506132386000830188612f56565b6132456020830187612f56565b6132526040830186612f56565b61325f6060830185612f56565b61326c6080830184612f56565b9695505050505050565b6000819050602082019050919050565b6000819050602082019050919050565b600081519050919050565b600081519050919050565b600081519050919050565b6000602082019050919050565b6000602082019050919050565b600082825260208201905092915050565b600082825260208201905092915050565b600082825260208201905092915050565b600061330f8261333f565b9050919050565b60008115159050919050565b6000819050919050565b600081905061333a826133f5565b919050565b600073ffffffffffffffffffffffffffffffffffffffff82169050919050565b6000819050919050565b60006133748261338d565b9050919050565b60006133868261332c565b9050919050565b60006133988261339f565b9050919050565b60006133aa8261333f565b9050919050565b60005b838110156133cf5780820151818401526020810190506133b4565b838111156133de576000848401525b50505050565b6000601f19601f8301169050919050565b600281106133ff57fe5b50565b61340b81613304565b811461341657600080fd5b50565b61342281613316565b811461342d57600080fd5b50565b61343981613322565b811461344457600080fd5b50565b6002811061345457600080fd5b50565b6134608161335f565b811461346b57600080fd5b5056fea26469706673582212202fbc5232cacd3ab17f3b3b571cdcbe9c75e7e232aa372bf604ec18c26f4198ec64736f6c63430006030033",
  "source": "pragma solidity 0.6.3;\npragma experimental ABIEncoderV2;\n\nimport '@openzeppelin/contracts/token/ERC20/IERC20.sol';\nimport '@openzeppelin/contracts/math/SafeMath.sol';\n\ncontract Dex {\n\n\n    using SafeMath for uint;\n\n    enum Side {\n        BUY,\n        SELL\n    }\n\n    struct Token {\n        bytes32 ticker;\n        address tokenAddress;\n    }\n\n    struct Order {\n        uint id;\n        address trader;\n        Side side;\n        bytes32 ticker;\n        uint amount;\n        uint filled;\n        uint price;\n        uint date;\n    }\n\n    mapping(bytes32 => Token) public tokens;\n    bytes32[] public tokenList;\n    mapping(address => mapping(bytes32 => uint)) public traderBalances;\n    mapping(bytes32 => mapping(uint => Order[])) public orderBook;\n    address public admin;\n    uint public nextOrderId;\n    uint public nextTradeId;\n    bytes32 constant DAI = bytes32('DAI');\n\n    event NewTrade(uint tradeId, uint orderId, bytes32 indexed ticker, address indexed trader1, address indexed trader2, uint amount, uint price, uint date);\n\n    constructor() public{\n        admin = msg.sender;\n    }\n\n    function getOrders(bytes32 ticker, Side side) external view returns(Order[] memory) {\n        return orderBook[ticker][uint(side)];\n    }\n\n    modifier tokenExist(bytes32 ticker) {\n        require(tokens[ticker].tokenAddress != address(0), 'this token does not exist');\n        _;\n    }\n\n    modifier onlyAdmin() {\n        require(msg.sender == admin, 'only admin');\n        _;\n    }\n\n    modifier tokenIsNotDai(bytes32 ticker) {\n        require(ticker != DAI, 'cannot trade DAI');\n        _;\n    }\n\n    function getTokens() external view returns(Token[] memory) {\n        Token[] memory _tokens = new Token[](tokenList.length);\n        for (uint i = 0; i < tokenList.length; i++) {\n            _tokens[i] = Token(tokens[tokenList[i]].ticker, tokens[tokenList[i]].tokenAddress); \n        }\n        return _tokens;\n    }\n\n    function addToken(bytes32 ticker, address tokenAddress) external onlyAdmin() {\n        tokens[ticker] = Token(ticker, tokenAddress);\n        tokenList.push(ticker);\n    }\n\n    function deposit(uint amount, bytes32 ticker) external tokenExist(ticker) {\n        IERC20(tokens[ticker].tokenAddress).transferFrom(msg.sender, address(this), amount);\n        traderBalances[msg.sender][ticker] = traderBalances[msg.sender][ticker].add(amount);\n    }\n\n    function withdraw(uint amount, bytes32 ticker) external tokenExist(ticker) {\n        require(traderBalances[msg.sender][ticker] >= amount, 'trader does not have enough funds to withdraw');\n        IERC20(tokens[ticker].tokenAddress).transfer(msg.sender, amount);\n        traderBalances[msg.sender][ticker] = traderBalances[msg.sender][ticker].sub(amount);\n    }\n\n    function createLimitOrder(bytes32 ticker, uint amount, uint price, Side side) tokenExist(ticker) tokenIsNotDai(ticker) external {\n        if(side ==Side.SELL) {\n            require(traderBalances[msg.sender][ticker] >= amount, 'token balance too low');\n        } else {\n            require(traderBalances[msg.sender][DAI] >= amount.mul(price), 'DAI balance too low');\n        }\n        Order[] storage orders = orderBook[ticker][uint(side)];\n        orders.push(Order(nextOrderId, msg.sender, side, ticker, amount, 0, price, now)); //push the order to the Order array\n        uint i = orders.length > 0 ? orders.length - 1 : 0;\n        while(i > 0) {\n            if(side == Side.BUY && orders[i - 1].price > orders[i].price) {\n                break;\n            } // this is checking if the preceding buy order in array is higher than the most recent, this will keep array order as is\n            if(side == Side.SELL && orders[i - 1].price < orders[i].price) {\n                break;\n            } // this is checking if the preceding sell order in array is lower than the most recent, this will keep array order as is\n            Order memory order = orders[i - 1]; // if the above conditions are not met, then the most recent order will swap places with the preceding data\n            orders[i - 1] = orders[i];\n            orders[i] = order;\n            i = i.sub(1);\n        }\n        nextOrderId = nextOrderId.add(1);\n    }\n\n    function createMarketOrder(bytes32 ticker, uint amount, Side side) tokenExist(ticker) tokenIsNotDai(ticker) external {\n        if(side == Side.SELL) {\n            require(traderBalances[msg.sender][ticker] >= amount, 'token balance too low');\n        }\n        Order[] storage orders = orderBook[ticker][uint(side == Side.BUY ? Side.SELL: Side.BUY)];\n        uint i;\n        uint remaining = amount;\n\n        while(i < orders.length && remaining > 0) {\n            uint available = orders[i].amount.sub(orders[i].filled);\n            uint matched = (remaining > available) ? available : remaining;\n            remaining = remaining.sub(matched);\n            orders[i].filled = orders[i].filled.add(matched);\n            emit NewTrade(nextTradeId, orders[i].id, ticker, orders[i].trader, msg.sender, matched, orders[i].price, now);\n            if(side == Side.SELL) {\n                traderBalances[msg.sender][ticker] = traderBalances[msg.sender][ticker].sub(matched);\n                traderBalances[msg.sender][DAI] = traderBalances[msg.sender][DAI].add(matched.mul(orders[i].price));\n                traderBalances[orders[i].trader][DAI] = traderBalances[orders[i].trader][DAI].sub(matched.mul(orders[i].price));\n                traderBalances[orders[i].trader][ticker] = traderBalances[orders[i].trader][ticker].add(matched);\n            }\n            if(side == Side.BUY) {\n                require(traderBalances[msg.sender][DAI] >= matched.mul(orders[i].price), 'DAI balance too low');\n                traderBalances[orders[i].trader][ticker] = traderBalances[msg.sender][ticker].sub(matched);\n                traderBalances[orders[i].trader][DAI] = traderBalances[msg.sender][DAI].add(matched.mul(orders[i].price));\n                traderBalances[msg.sender][DAI] = traderBalances[orders[i].trader][DAI].sub(matched.mul(orders[i].price));\n                traderBalances[msg.sender][ticker] = traderBalances[orders[i].trader][ticker].add(matched);\n            nextTradeId = nextTradeId.add(1); \n            i = i.add(1);\n            }\n        }\n        \n        i = 0;\n        while(i < orders.length && orders[i].filled == orders[i].amount) {\n            for(uint j = i; j< orders.length - 1; j++) {\n                orders[j] = orders[j + 1];\n            }\n            orders.pop();\n            i = i.add(1);\n        }\n    }\n}",
  "sourcePath": "/Users/andrewrudnick/Documents/GitHub/dex-project/contracts/dex.sol",
  "compiler": {
    "name": "solc",
    "version": "0.6.3+commit.8dda9521.Emscripten.clang"
  },
  "schemaVersion": "3.2.1",
  "updatedAt": "2021-01-02T23:09:35.098Z",
  "networkType": "ethereum",
  "devdoc": {
    "methods": {}
  },
  "userdoc": {
    "methods": {}
  }
}